:020000040000FA
:100000000C288207303431343234333434343534CC
:10001000363437343834393483160317890188016C
:1000200008148316031385010514890188018312BE
:10003000031341309F00831603139F019F172C2841
:100040000910891006308800C2200C308800C220B8
:100050003C308800C22008009F149F182D283620AD
:10006000452061208E202020AA202C28A701A8014D
:10007000831603131E0883120313A70083120313AE
:100080001E0883120313A8000800A501A401A30100
:10009000A6016430A70203184F28A7075128A50A14
:1000A0004A280A30A70203185728A7075928A40A84
:1000B00052280130A70203185F28A7070800A30AE7
:1000C0005A2800302806031972280130280603191F
:1000D00079280230280603198028033028060319DE
:1000E000872808000030A3070030A4070030A507C8
:1000F00008000630A3070530A4070230A507080052
:100100000230A3070130A4070530A5070800083016
:10011000A3070630A4070730A5070800F630230719
:1001200003189B20F63024070318A020F63025077B
:100130000318A52008000A30A3020130A407080014
:100140000A30A4020130A50708000A30A5020130D8
:10015000A607080009148910260801208800C2207B
:10016000250801208800C220240801208800C22020
:10017000230801208800C22009108910023088005D
:10018000C22008000915C620091108002F308C0074
:0E01900006308D008C0BCA288D0BCA28080083
:02400E00E12FA0
:02401000FF3E71
:00000001FF
