:020000040000FA
:100000000D28091089100630880034200C30880033
:1000100034203C3088003420080083160317880100
:100020008901831603138901880183120313880150
:100030008901061401201C28091489104830880001
:1000400034206F30880034206C30880034206130D8
:10005000880034205F30880034203A308800342013
:100060004430880034203828091539200911080047
:100070003828C530A500FD30A60064006400A60B3A
:0A0080003D28A50B3B28442808008A
:02400E00E12FA0
:02401000FF3E71
:00000001FF
