:020000040000FA
:100000000128831603178901880108148316031336
:1000100085010514890188018312031341309F0073
:10002000831603139F019F1783120313182024289C
:100030000910891006308800E2200C308800E22088
:100040003C308800E22008009F149F1825282828AB
:10005000831603131E0883120313A40083120313D1
:100060001E0883120313A50035282508003A031D36
:100070003E2824085D3C031C3E28BD28033A031D8E
:100080004B282408543C03184B28543E2408CE3CEB
:10009000031C4B2850282008013A031D7528992875
:1000A000201009148910EF204D308800E2204530DF
:1000B0008800E22044308800E22049308800E220B5
:1000C0004F308800E2202D308800E2204430880044
:1000D000E22049308800E22041308800E220091007
:1000E000891002308800E220242809148910E620B3
:1000F00054308800E22041308800E22052308800ED
:10010000E22044308800E22045308800E2202030A0
:100110008800E22020308800E22020308800E220A1
:1001200020308800E2200910891002308800E22087
:10013000242809148910E6204D308800E22041303F
:100140008800E2204E308800E22041308800E22022
:100150004E308800E22041308800E22020308800C4
:10016000E22020308800E22020308800E2200910C0
:10017000891002308800E2202428201409148910F4
:10018000EF204E308800E2204F308800E2204330DC
:100190008800E22048308800E22045308800E220D4
:1001A00020308800E22020308800E22020308800C3
:1001B000E22020308800E2200910891002308800F7
:1001C000E22024280915E620091108002F308C00B0
:1001D00006308D008C0BEA288D0BEA2808002830A9
:1001E000A100FA30A20064006400A20BF328A10B66
:0401F000F1280800EA
:02400E00E12FA0
:02401000FF3E71
:00000001FF
