:020000040000FA
:10000000831603178801890183160313850186016E
:100010008312031386018501A001A101A2011430FE
:10002000A20020082E2086000514851539208501A0
:1000300021082E2086000515851539208501A20B83
:1000400011282228A00A20080A3A031D0F28A0011F
:10005000A10A21080A3A031D0F280C2882077E34C2
:1000600030346D34793433345B345F3470347F34FE
:100070007334EF30A300E830A40064003F28402828
:100080006400A40B3D28A30B3B284628472848289A
:040090006400080000
:02400E00E12FA0
:02401000FF3E71
:00000001FF
