:020000040000FA
:02000000802856
:08000800072886010B10061CFD
:100010001028861C2028061D3028861D402805280B
:1000200006168612061306185028061286160613A0
:100030000618542806128612061706185828102883
:1000400006168612061386185C28061286160613F4
:10005000861860280612861206178618642820283B
:100060000616861206130619682806128616061347
:1000700006196C28061286120617061970283028F1
:10008000061686120613861974280612861606139B
:100090008619782806128612061786197C284028A9
:1000A0000E30880099200528013088009920052805
:1000B00009308800992005280230880099200528F9
:1000C0000A308800992005280630880099200528E4
:1000D00008308800992005280430880099200528D8
:1000E0000C308800992005280530880099200528C3
:1000F00000308800992005280130880099200528C3
:10010000831603178801890183120313860188016E
:10011000831603130F308600880181130F3095007A
:100120000F309600831203130B148B158B170000EE
:100130009728EF30A500E830A60064009F28A0288B
:100140006400A60B9D28A50B9B28A628A728A828F5
:04015000640008003F
:02400E00E12FA0
:02401000FF3E71
:00000001FF
