:020000040000FA
:020000008F2847
:080008007D28831203178D000F
:100010000C140C088312031308008312031700301A
:100020008D0021088C001D20080083120317013069
:100030008D0022088C001D200800831603178C13E6
:100040000C1555308D00AA308D008C148C18262884
:100050000C11831203130800831203139F149F18BB
:100060002F28831203131E08A00083120313080015
:100070008312031323089500831203130C30970097
:1000800008006430F000FA30F100F10B4528F00B65
:100090004328080083120313861C5128061D5B2881
:1000A00008004120A10AA20A0D2015208312031383
:1000B00086184A28562841202108031DA10322083A
:1000C000031DA2030D2015208312031306194A28CD
:1000D00064282C2021082002031C762820082202F4
:1000E000031C7A288030A30038200800C830A30001
:1000F00038200800A30138200800A6000308A70044
:10010000831203138B1083120313C830A30038200B
:100110006430A400251427088300260809008316EC
:10012000031360308F008316031305148316031323
:10013000071183160313061486140615831603137A
:1001400081138316031708148316031300309F00CE
:1001500083120313C1309F0083160313FF309200F4
:100160008312031304309200A301382000300520CD
:10017000A10001300520A200FF302102031DC62886
:100180001E30A1004630A2000D201520831203135B
:100190000B168B17A501A4012518D22869204A2027
:1001A0004120CC28A40BD7282510A30138204120BA
:0201B000CC2859
:02400E00E12FA0
:02401000FF3E71
:00000001FF
