:020000040000FA
:100000006A2882073034313432343334343435346E
:100010003634373438343934080089100910063042
:10002000880025200C30880025203C3088002520C1
:1000300008000910891002308800252008000910E6
:100040008910013088002520080009152920091190
:1000500008000D30A500FF30A600A60B2D28A50B2B
:100060002B280800831603178901880108148814B7
:1000700083160313850105148514880189018316ED
:10008000031380309F008312031341309F008801C7
:10009000890108009F149F184B28831603131E081C
:1000A00083120313A000831203131E088312031389
:1000B000A10008009F149F185B28831603131E08D5
:1000C00083120313B500831203131E088312031354
:1000D000B4000800831603130615880189018312F2
:1000E00003138601880189010D2032201F119F1101
:1000F0001F125F214A201F159F111F125F215A20D6
:10010000952083120313061D762887207628000089
:100110008728831603170C1555308D00AA308D00E3
:100120008C148C1891280C11080009148910423085
:10013000880025203A30880025202008A7002108C3
:10014000A800FA20162143213008B6003108AA0081
:100150003208AB003308AC003508A7003408A8000B
:10016000FA20162143213008B7003108AD003208CB
:10017000AE003308AF0036080120880025202A0889
:100180000120880025202B080120880025202C082C
:10019000012088002520203088002520413088005B
:1001A00025203A30880025203708012088002520A6
:1001B0002D080120880025202E08012088002520F8
:1001C0002F08012088002520E6200800ED20891056
:1001D000091002308800252008000330A2001A30E0
:1001E000A300FF30A400A40BF328A30BF128A20B5B
:1001F000F0280800B101B201B301B0016430A702D8
:1002000003180429A7070629B10AFF280A30A70204
:1002100003180C29A7070E29B20A07290130A702E3
:1002200003181429A7070800B30A0F29003028066D
:10023000031927290130280603192E290230280620
:10024000031935290330280603193C29080000301A
:10025000B3070030B2070030B10708000630B3071B
:100260000530B2070230B10708000230B307013091
:10027000B2070530B10708000830B3070630B207EF
:100280000730B1070800F630330703185021F63065
:10029000320703185521F630310703185A21080098
:1002A0000A30B3020130B20708000A30B20201304E
:1002B000B10708000A30B1020130B0070800193058
:0A02C000B8000000B80B6129080027
:02400E00E12FA0
:02401000FF3E71
:00000001FF
