:020000040000FA
:100000000D288207303431343234333434343534CB
:100010003634373438343934080083160313061560
:1000200088018901870183120313860188018901F0
:1000300007105C2081209B201F119F111F12672237
:10004000AE201F159F111F126722BE205B21831255
:100050000313061D1C2827212D280030BC00422038
:100060003B08A1000130BC0042203B08A000023048
:10007000BC0042203B08B4000330BC0042203B08D7
:10008000B5005328831203133C08831203178D0015
:10009000831603178C130C14831203170C08831296
:1000A0000313BB0008009F151F111F126722CE20EB
:1000B0009621DE20F7205328891009100630880089
:1000C00074200C30880074203C30880074200800B4
:1000D0000910891002308800742008000910891066
:1000E00001308800742008000915782009110800E3
:1000F0000D30A500FF30A600A60B7C28A50B7A28A2
:10010000080083160317890188010814881408154C
:1001100083160313850105148514051588018901CB
:100120008316031380309F008312031341309F0016
:10013000880189010800831603130711831603132E
:10014000FF309200831203130C30970095011712B1
:100150009712831203130430920008009F149F1813
:10016000AF28831603131E0883120313A000831203
:1001700003131E0883120313A10008009F149F1885
:10018000BF28831603131E0883120313B5008312BE
:1001900003131E0883120313B40008009F149F1852
:1001A000CF28831603131E0883120313B90083128A
:1001B00003131E0883120313BA00080021083A0231
:1001C000031CF328031DE82820083902031CF32828
:1001D0003A083402031CF528031DF22839083502B9
:1001E000031CF52808000714080007100800210860
:1001F0003A02031C2229031D012920083902031C8D
:1002000022293A083402031C2529031D0B29390829
:100210003502031C25293508A2003408A300200854
:10022000A2022108A3023508A4003408A500390859
:10023000A4023A08A5022208A6002408B80038083B
:1002400095002629FF3095002629950108002108F0
:10025000BB000030BC003C212008BB000130BC00CA
:100260003C213408BB000230BC003C213508BB00F7
:100270000330BC003C210800831203133B088312A7
:1002800003178C00831203133C08831203178D009D
:10029000831603178C130C158B138B1B4D295530AC
:1002A0008D00AA308D008C148C1854298B170C11DA
:1002B000831203130800091489106D22423088004C
:1002C00074203A3088007420360801208800742099
:1002D0002A080120880074202B080120880074203F
:1002E0002C080120880074202030880074204130C0
:1002F000880074203A308800742037080120880074
:1003000074202D080120880074202E080120880008
:1003100074202F080120880074208F210800F52107
:10032000891009100230880074200800091489100F
:100330008C224230880074203A30880074203608BD
:100340000120880074202A080120880074202B08CE
:100350000120880074202C0801208800742020309F
:10036000880074204130880074203A30880074205E
:1003700037080120880074202D080120880074208F
:100380002E080120880074202F0801208800742086
:1003900009108910C0308800742009145330880077
:1003A00074204530880074204E308800742053300B
:1003B000880074204F3088007420523088007420E8
:1003C0003A30880074203D080120880074203E08DF
:1003D0000120880074203F08012088007420400814
:1003E0000120880074208F2108000330A2001A30F9
:1003F000A300FF30A400A40BFB29A30BF929A20B37
:10040000F8290800B101B201B301B0016430A702BC
:1004100003180C2AA7070E2AB10A072A0A30A702D6
:100420000318142AA707162AB20A0F2A0130A702B6
:1004300003181C2AA7070800B30A172A0030280649
:1004400003192F2A013028060319362A02302806FC
:1004500003193D2A033028060319442A08000030F6
:10046000B3070030B2070030B10708000630B30709
:100470000530B2070230B10708000230B30701307F
:10048000B2070530B10708000830B3070630B207DD
:100490000730B1070800F630330703185822F6304A
:1004A000320703185D22F630310703186222080074
:1004B0000A30B3020130B20708000A30B20201303C
:1004C000B10708000A30B1020130B0070800193046
:1004D000B8000000B80B692A08002008A70021080E
:1004E000A80002221E224B223008B6003108AA00C2
:1004F0003208AB003308AC003508A7003408A80068
:1005000002221E224B223008B7003108AD0032080B
:10051000AE003308AF0008002008A7002108A8009B
:1005200002221E224B223008B6003108AA003208EF
:10053000AB003308AC003508A7003408A80002223D
:100540001E224B223008B7003108AD003208AE0041
:100550003308AF003908A7003A08A80002221E227B
:100560004B223008BD003108BE003208BF003308FE
:04057000C0000800BF
:02400E00E12FA0
:02401000FF3E71
:00000001FF
