:020000040000FA
:100000004728091089100630880019200F30880011
:1000100019203C308800192008000910891002308E
:100020008800192008000910891001308800192063
:10003000080009151D20091108000D30A500FF302A
:10004000A600A60B2128A50B1F280800831603175E
:100050008901880108148814831603138501051487
:100060008514880189018316031380309F00831251
:10007000031341309F008801890108009F149F18D5
:100080003F28831603131E088312031308008316E8
:100090000313061588018901831203138601880161
:1000A0008901012026201F119F111F123E20A00050
:1000B0001F159F111F123E20A1007B2083120313E6
:1000C000061D53286420532800308D0020088C0022
:1000D0006F2001308D0021088C006F2008008316EE
:1000E00003170C1555308D00AA308D008C148C1818
:1000F00077280C1108000914891042308800192053
:100100003A30880019202008A700CC203108AA0026
:100110003208AB003308AC002108A700CC2031081E
:10012000AD003208AE003308AF002A08303E880028
:1001300019202B08303E880019202C08303E8800FA
:1001400019202030880019204130880019203A30C9
:10015000880019202D08303E880019202E08303ED6
:10016000880019202F08303E88001920B820080088
:10017000BF208910091002308800192008000330C0
:10018000A2001A30A300FF30A400A40BC528A30BC3
:10019000C328A20BC2280800B101B201B301B0010B
:1001A0006430A7020318D628A707D828B10AD12897
:1001B0000A30A7020318DE28A707E028B20AD928C8
:1001C0000130A7020318E628A7070800B30AE128B0
:02400E00E12FA0
:02401000FF3E71
:00000001FF
