:020000040000FA
:1000000023288207303431343234333434343534B5
:100010003634373438343934413442344334443458
:100020004534463482073034313432343334343456
:100030003534363437343834393441344234433447
:1000400044344534463483160317880189018316E6
:10005000031388018901033086008312031386018C
:10006000880189013520B0014A280910891006301D
:10007000880041200F30880041203C30880041201A
:1000800008000915DA2009110800091089108800F4
:1000900041200800091489104C3088004120453067
:1000A000880041204530880041205230880041209E
:1000B0005F30880041202F30880041204530880083
:1000C00041205330880041204330880041205F3078
:1000D00088004120203088004120203088004120C5
:1000E000013088004120061C782809307B207E28BA
:1000F00004307B20812880384520080006187828A5
:10010000842806187528862886187E288618892847
:10011000812801308800412009148910533088005B
:1001200041204530880041204C3088004120453036
:10013000880041204330880041205430880041200D
:100140002030880041204130880041204430880020
:1001500041204430880041205230880041205F30E7
:10016000880041205F3088004120203088004120F5
:10017000203088004120203088004120FF30880056
:1001800041200618C428C128B00ACE280C307B2094
:1001900009148910012088004120C1283008103A34
:1001A000031DC6280B307B200914891012208800FB
:1001B0004120C628C530A900FD30AA0064006400B3
:0C01C000AA0BDE28A90BDC28E5280800AB
:02400E00E12FA0
:02401000FF3E71
:00000001FF
