:020000040000FA
:1000000083160317880189018316031385010516DA
:1000100086018312031386018501A001A101A201BB
:100020000530A200200845208600051485155020C3
:10003000850121084520860005158515502085017C
:10004000A20B12282328051E26283228A00A2008E1
:100050000A3A031D1028A001A10A21080A3A031D2B
:1000600010280D282008003A03193828A00310286A
:100070000930A0002108003A03194028A1031028E4
:100080000930A1000930A000102882077E343034E6
:100090006D34793433345B345F3470347F3473348B
:1000A000EF30A300E830A40064005628572864000D
:1000B000A40B5428A30B52285D285E285F286400F7
:0200C000080036
:02400E00E12FA0
:02401000FF3E71
:00000001FF
