:020000040000FA
:1000000035288207013402340434023402340134C6
:1000100004340134043402340134013482070434DA
:10002000013402340134043402340434013402341F
:1000300002340434013482070134023404340234BB
:100040000234013404340134043402340134013400
:10005000820702340134043402340434013402349B
:100060000134043404340234013483160317880144
:100070008901831203138601890183160313860104
:10008000061486140615890183120313A901A80119
:10009000A701A601AA01AB01AC01AD01A001A1011C
:1000A000A201AE01A60A06185A2886185D2806196C
:1000B0006028522806185A28632886185D28632865
:1000C0000619602863286430A60203186928A60769
:1000D0006B28A70A64280A30A60203187128A6070D
:1000E0007328A80A6C280130A60203187928A607ED
:1000F0007B28A90A742829080120AA008900422126
:100100008901422129080E20AB0089004221890182
:10011000422128081B20AC0089004221890142218C
:1001200027082820AD0089004221890142210618B4
:10013000B3288618BC280619C52897280618CE2883
:100140008618D7280619E0289E280618E928861858
:10015000F2280619FB28A5280618042986180D2957
:1001600006191629AC28061CB62801308900A00003
:100170004221890142219E28861CBF280230890025
:10018000A0004221890142219E28061DC828043072
:100190008900A0004221890142219E28061CD12805
:1001A00001308900A100422189014221A528861C35
:1001B000DA2802308900A100422189014221A528C4
:1001C000061DE32804308900A10042218901422153
:1001D000A528061CEC2801308900A20042218901D3
:1001E0004221AC28861CF52802308900A200422159
:1001F00089014221AC28061DFE2804308900A20096
:10020000422189014221AC28061C072901308900BE
:10021000AE004221890142211F29861C102902308B
:100220008900AE004221890142211F29061D19299A
:1002300004308900AE004221890142211F292A0889
:10024000A006031D30292B08A106031D30292C0808
:10025000A206031D30292D08AE06031D30293929B9
:100260000914422109104221091442210910422196
:10027000352889144221891042218914422189108C
:1002800042213528EF30A300E830A400640048295B
:1002900049296400A40B4629A30B44294F2950295E
:0602A00051296400080072
:02400E00E12FA0
:02401000FF3E71
:00000001FF
